{
  "contractName": "DLT",
  "abi": [
    {
      "inputs": [
        {
          "components": [
            {
              "internalType": "string",
              "name": "Id",
              "type": "string"
            },
            {
              "internalType": "string[]",
              "name": "PublicKeys",
              "type": "string[]"
            },
            {
              "internalType": "string[]",
              "name": "Authentication",
              "type": "string[]"
            },
            {
              "internalType": "string",
              "name": "Hash",
              "type": "string"
            }
          ],
          "internalType": "struct DLT.LedgerDIDDoc",
          "name": "_ledgerDIDDoc",
          "type": "tuple"
        }
      ],
      "name": "createDID",
      "outputs": [
        {
          "internalType": "string",
          "name": "",
          "type": "string"
        }
      ],
      "stateMutability": "nonpayable",
      "type": "function"
    },
    {
      "inputs": [
        {
          "components": [
            {
              "internalType": "string",
              "name": "Id",
              "type": "string"
            },
            {
              "internalType": "string[]",
              "name": "PublicKeys",
              "type": "string[]"
            },
            {
              "internalType": "string[]",
              "name": "Authentication",
              "type": "string[]"
            },
            {
              "internalType": "string",
              "name": "Hash",
              "type": "string"
            }
          ],
          "internalType": "struct DLT.LedgerDIDDoc",
          "name": "_ledgerDIDDoc",
          "type": "tuple"
        }
      ],
      "name": "updateDID",
      "outputs": [
        {
          "internalType": "string",
          "name": "",
          "type": "string"
        }
      ],
      "stateMutability": "nonpayable",
      "type": "function"
    },
    {
      "inputs": [
        {
          "internalType": "string[]",
          "name": "dids",
          "type": "string[]"
        }
      ],
      "name": "deleteDID",
      "outputs": [
        {
          "internalType": "string",
          "name": "",
          "type": "string"
        }
      ],
      "stateMutability": "nonpayable",
      "type": "function"
    },
    {
      "inputs": [
        {
          "internalType": "string",
          "name": "did",
          "type": "string"
        }
      ],
      "name": "foundDID",
      "outputs": [
        {
          "components": [
            {
              "internalType": "string",
              "name": "Id",
              "type": "string"
            },
            {
              "internalType": "string[]",
              "name": "PublicKeys",
              "type": "string[]"
            },
            {
              "internalType": "string[]",
              "name": "Authentication",
              "type": "string[]"
            },
            {
              "internalType": "string",
              "name": "Hash",
              "type": "string"
            }
          ],
          "internalType": "struct DLT.LedgerDIDDoc",
          "name": "_ledgerDIDDoc",
          "type": "tuple"
        }
      ],
      "stateMutability": "view",
      "type": "function",
      "constant": true
    },
    {
      "inputs": [],
      "name": "getStorage",
      "outputs": [
        {
          "components": [
            {
              "internalType": "string",
              "name": "Id",
              "type": "string"
            },
            {
              "internalType": "string[]",
              "name": "PublicKeys",
              "type": "string[]"
            },
            {
              "internalType": "string[]",
              "name": "Authentication",
              "type": "string[]"
            },
            {
              "internalType": "string",
              "name": "Hash",
              "type": "string"
            }
          ],
          "internalType": "struct DLT.LedgerDIDDoc[]",
          "name": "",
          "type": "tuple[]"
        }
      ],
      "stateMutability": "view",
      "type": "function",
      "constant": true
    }
  ],
  "bytecode": "0x608060405234801561001057600080fd5b50611c25806100206000396000f3fe608060405234801561001057600080fd5b50600436106100575760003560e01c8063070a33701461005c5780630a7303b11461008c57806324c5843f146100bc5780633408f73a146100ec578063ae4b4eec1461010a575b600080fd5b610076600480360381019061007191906114f7565b61013a565b60405161008391906115c8565b60405180910390f35b6100a660048036038101906100a191906114f7565b610330565b6040516100b391906115c8565b60405180910390f35b6100d660048036038101906100d191906115ea565b61057c565b6040516100e391906115c8565b60405180910390f35b6100f4610837565b6040516101019190611879565b60405180910390f35b610124600480360381019061011f919061189b565b610b6c565b604051610131919061195c565b60405180910390f35b60606000805b6000805490508110156101ea57836000015160405160200161016291906119ba565b604051602081830303815290604052805190602001206000828154811061018c5761018b6119d1565b5b90600052602060002090600402016000016040516020016101ad9190611af4565b60405160208183030381529060405280519060200120036101d75781806101d390611b44565b9250505b80806101e290611b44565b915050610140565b506000808211156101fe5760019050610203565b600090505b60001515811515036102f05760008490806001815401808255809150506001900390600052602060002090600402016000909190919091506000820151816000019080519060200190610257929190610f20565b506020820151816001019080519060200190610274929190610fa6565b506040820151816002019080519060200190610291929190610fa6565b5060608201518160030190805190602001906102ae929190610f20565b5050506040518060400160405280600c81526020017f44494420637265617465642100000000000000000000000000000000000000008152509250505061032b565b6040518060400160405280601481526020017f44494420616c7265616479206372656174656421000000000000000000000000815250925050505b919050565b60606000805b6000805490508110156104d857836000015160405160200161035891906119ba565b6040516020818303038152906040528051906020012060008281548110610382576103816119d1565b5b90600052602060002090600402016000016040516020016103a39190611af4565b60405160208183030381529060405280519060200120036104c5578360000151600082815481106103d7576103d66119d1565b5b906000526020600020906004020160000190805190602001906103fb929190610f20565b50836020015160008281548110610415576104146119d1565b5b90600052602060002090600402016001019080519060200190610439929190610fa6565b50836040015160008281548110610453576104526119d1565b5b90600052602060002090600402016002019080519060200190610477929190610fa6565b50836060015160008281548110610491576104906119d1565b5b906000526020600020906004020160030190805190602001906104b5929190610f20565b5081806104c190611b44565b9250505b80806104d090611b44565b915050610336565b506000808211156104ec57600190506104f1565b600090505b600015158115151461053c576040518060400160405280600c81526020017f444944207570646174656421000000000000000000000000000000000000000081525092505050610577565b6040518060400160405280600e81526020017f444944206e6f7420666f756e6421000000000000000000000000000000000000815250925050505b919050565b60606000805b83518110156107935760005b60008054905081101561077f578482815181106105ae576105ad6119d1565b5b60200260200101516040516020016105c691906119ba565b60405160208183030381529060405280519060200120600082815481106105f0576105ef6119d1565b5b90600052602060002090600402016000016040516020016106119190611af4565b604051602081830303815290604052805190602001200361076c57600060016000805490506106409190611b8c565b81548110610651576106506119d1565b5b906000526020600020906004020160008281548110610673576106726119d1565b5b9060005260206000209060040201600082018160000190805461069590611a2f565b6106a0929190611006565b5060018201816001019080546106b7929190611093565b5060028201816002019080546106ce929190611093565b5060038201816003019080546106e390611a2f565b6106ee929190611006565b50905050600080548061070457610703611bc0565b5b60019003818190600052602060002090600402016000808201600061072991906110fb565b600182016000610739919061113b565b600282016000610749919061113b565b60038201600061075991906110fb565b50509055828061076890611b44565b9350505b808061077790611b44565b91505061058e565b50808061078b90611b44565b915050610582565b506000808211156107a757600190506107ac565b600090505b60001515811515146107f7576040518060400160405280600c81526020017f4449442044656c6574656421000000000000000000000000000000000000000081525092505050610832565b6040518060400160405280600e81526020017f444944206e6f7420666f756e6421000000000000000000000000000000000000815250925050505b919050565b60606000805480602002602001604051908101604052809291908181526020016000905b82821015610b63578382906000526020600020906004020160405180608001604052908160008201805461088e90611a2f565b80601f01602080910402602001604051908101604052809291908181526020018280546108ba90611a2f565b80156109075780601f106108dc57610100808354040283529160200191610907565b820191906000526020600020905b8154815290600101906020018083116108ea57829003601f168201915b5050505050815260200160018201805480602002602001604051908101604052809291908181526020016000905b828210156109e157838290600052602060002001805461095490611a2f565b80601f016020809104026020016040519081016040528092919081815260200182805461098090611a2f565b80156109cd5780601f106109a2576101008083540402835291602001916109cd565b820191906000526020600020905b8154815290600101906020018083116109b057829003601f168201915b505050505081526020019060010190610935565b50505050815260200160028201805480602002602001604051908101604052809291908181526020016000905b82821015610aba578382906000526020600020018054610a2d90611a2f565b80601f0160208091040260200160405190810160405280929190818152602001828054610a5990611a2f565b8015610aa65780601f10610a7b57610100808354040283529160200191610aa6565b820191906000526020600020905b815481529060010190602001808311610a8957829003601f168201915b505050505081526020019060010190610a0e565b505050508152602001600382018054610ad290611a2f565b80601f0160208091040260200160405190810160405280929190818152602001828054610afe90611a2f565b8015610b4b5780601f10610b2057610100808354040283529160200191610b4b565b820191906000526020600020905b815481529060010190602001808311610b2e57829003601f168201915b5050505050815250508152602001906001019061085b565b50505050905090565b610b7461115c565b60005b600080549050811015610f195782604051602001610b9591906119ba565b6040516020818303038152906040528051906020012060008281548110610bbf57610bbe6119d1565b5b9060005260206000209060040201600001604051602001610be09190611af4565b6040516020818303038152906040528051906020012003610f065760008181548110610c0f57610c0e6119d1565b5b9060005260206000209060040201604051806080016040529081600082018054610c3890611a2f565b80601f0160208091040260200160405190810160405280929190818152602001828054610c6490611a2f565b8015610cb15780601f10610c8657610100808354040283529160200191610cb1565b820191906000526020600020905b815481529060010190602001808311610c9457829003601f168201915b5050505050815260200160018201805480602002602001604051908101604052809291908181526020016000905b82821015610d8b578382906000526020600020018054610cfe90611a2f565b80601f0160208091040260200160405190810160405280929190818152602001828054610d2a90611a2f565b8015610d775780601f10610d4c57610100808354040283529160200191610d77565b820191906000526020600020905b815481529060010190602001808311610d5a57829003601f168201915b505050505081526020019060010190610cdf565b50505050815260200160028201805480602002602001604051908101604052809291908181526020016000905b82821015610e64578382906000526020600020018054610dd790611a2f565b80601f0160208091040260200160405190810160405280929190818152602001828054610e0390611a2f565b8015610e505780601f10610e2557610100808354040283529160200191610e50565b820191906000526020600020905b815481529060010190602001808311610e3357829003601f168201915b505050505081526020019060010190610db8565b505050508152602001600382018054610e7c90611a2f565b80601f0160208091040260200160405190810160405280929190818152602001828054610ea890611a2f565b8015610ef55780601f10610eca57610100808354040283529160200191610ef5565b820191906000526020600020905b815481529060010190602001808311610ed857829003601f168201915b505050505081525050915050610f1b565b8080610f1190611b44565b915050610b77565b505b919050565b828054610f2c90611a2f565b90600052602060002090601f016020900481019282610f4e5760008555610f95565b82601f10610f6757805160ff1916838001178555610f95565b82800160010185558215610f95579182015b82811115610f94578251825591602001919060010190610f79565b5b509050610fa29190611184565b5090565b828054828255906000526020600020908101928215610ff5579160200282015b82811115610ff4578251829080519060200190610fe4929190610f20565b5091602001919060010190610fc6565b5b50905061100291906111a1565b5090565b82805461101290611a2f565b90600052602060002090601f0160209004810192826110345760008555611082565b82601f106110455780548555611082565b8280016001018555821561108257600052602060002091601f016020900482015b82811115611081578254825591600101919060010190611066565b5b50905061108f9190611184565b5090565b8280548282559060005260206000209081019282156110ea5760005260206000209182015b828111156110e95782829080546110ce90611a2f565b6110d9929190611006565b50916001019190600101906110b8565b5b5090506110f791906111a1565b5090565b50805461110790611a2f565b6000825580601f106111195750611138565b601f0160209004906000526020600020908101906111379190611184565b5b50565b508054600082559060005260206000209081019061115991906111a1565b50565b6040518060800160405280606081526020016060815260200160608152602001606081525090565b5b8082111561119d576000816000905550600101611185565b5090565b5b808211156111c157600081816111b891906110fb565b506001016111a2565b5090565b6000604051905090565b600080fd5b600080fd5b600080fd5b6000601f19601f8301169050919050565b7f4e487b7100000000000000000000000000000000000000000000000000000000600052604160045260246000fd5b611227826111de565b810181811067ffffffffffffffff82111715611246576112456111ef565b5b80604052505050565b60006112596111c5565b9050611265828261121e565b919050565b600080fd5b600080fd5b600080fd5b600067ffffffffffffffff821115611294576112936111ef565b5b61129d826111de565b9050602081019050919050565b82818337600083830152505050565b60006112cc6112c784611279565b61124f565b9050828152602081018484840111156112e8576112e7611274565b5b6112f38482856112aa565b509392505050565b600082601f8301126113105761130f61126f565b5b81356113208482602086016112b9565b91505092915050565b600067ffffffffffffffff821115611344576113436111ef565b5b602082029050602081019050919050565b600080fd5b600061136d61136884611329565b61124f565b905080838252602082019050602084028301858111156113905761138f611355565b5b835b818110156113d757803567ffffffffffffffff8111156113b5576113b461126f565b5b8086016113c289826112fb565b85526020850194505050602081019050611392565b5050509392505050565b600082601f8301126113f6576113f561126f565b5b813561140684826020860161135a565b91505092915050565b600060808284031215611425576114246111d9565b5b61142f608061124f565b9050600082013567ffffffffffffffff81111561144f5761144e61126a565b5b61145b848285016112fb565b600083015250602082013567ffffffffffffffff81111561147f5761147e61126a565b5b61148b848285016113e1565b602083015250604082013567ffffffffffffffff8111156114af576114ae61126a565b5b6114bb848285016113e1565b604083015250606082013567ffffffffffffffff8111156114df576114de61126a565b5b6114eb848285016112fb565b60608301525092915050565b60006020828403121561150d5761150c6111cf565b5b600082013567ffffffffffffffff81111561152b5761152a6111d4565b5b6115378482850161140f565b91505092915050565b600081519050919050565b600082825260208201905092915050565b60005b8381101561157a57808201518184015260208101905061155f565b83811115611589576000848401525b50505050565b600061159a82611540565b6115a4818561154b565b93506115b481856020860161155c565b6115bd816111de565b840191505092915050565b600060208201905081810360008301526115e2818461158f565b905092915050565b600060208284031215611600576115ff6111cf565b5b600082013567ffffffffffffffff81111561161e5761161d6111d4565b5b61162a848285016113e1565b91505092915050565b600081519050919050565b600082825260208201905092915050565b6000819050602082019050919050565b600082825260208201905092915050565b600061167b82611540565b611685818561165f565b935061169581856020860161155c565b61169e816111de565b840191505092915050565b600081519050919050565b600082825260208201905092915050565b6000819050602082019050919050565b60006116e18383611670565b905092915050565b6000602082019050919050565b6000611701826116a9565b61170b81856116b4565b93508360208202850161171d856116c5565b8060005b85811015611759578484038952815161173a85826116d5565b9450611745836116e9565b925060208a01995050600181019050611721565b50829750879550505050505092915050565b600060808301600083015184820360008601526117888282611670565b915050602083015184820360208601526117a282826116f6565b915050604083015184820360408601526117bc82826116f6565b915050606083015184820360608601526117d68282611670565b9150508091505092915050565b60006117ef838361176b565b905092915050565b6000602082019050919050565b600061180f82611633565b611819818561163e565b93508360208202850161182b8561164f565b8060005b85811015611867578484038952815161184885826117e3565b9450611853836117f7565b925060208a0199505060018101905061182f565b50829750879550505050505092915050565b600060208201905081810360008301526118938184611804565b905092915050565b6000602082840312156118b1576118b06111cf565b5b600082013567ffffffffffffffff8111156118cf576118ce6111d4565b5b6118db848285016112fb565b91505092915050565b600060808301600083015184820360008601526119018282611670565b9150506020830151848203602086015261191b82826116f6565b9150506040830151848203604086015261193582826116f6565b9150506060830151848203606086015261194f8282611670565b9150508091505092915050565b6000602082019050818103600083015261197681846118e4565b905092915050565b600081905092915050565b600061199482611540565b61199e818561197e565b93506119ae81856020860161155c565b80840191505092915050565b60006119c68284611989565b915081905092915050565b7f4e487b7100000000000000000000000000000000000000000000000000000000600052603260045260246000fd5b7f4e487b7100000000000000000000000000000000000000000000000000000000600052602260045260246000fd5b60006002820490506001821680611a4757607f821691505b602082108103611a5a57611a59611a00565b5b50919050565b60008190508160005260206000209050919050565b60008154611a8281611a2f565b611a8c818661197e565b94506001821660008114611aa75760018114611ab857611aeb565b60ff19831686528186019350611aeb565b611ac185611a60565b60005b83811015611ae357815481890152600182019150602081019050611ac4565b838801955050505b50505092915050565b6000611b008284611a75565b915081905092915050565b7f4e487b7100000000000000000000000000000000000000000000000000000000600052601160045260246000fd5b6000819050919050565b6000611b4f82611b3a565b91507fffffffffffffffffffffffffffffffffffffffffffffffffffffffffffffffff8203611b8157611b80611b0b565b5b600182019050919050565b6000611b9782611b3a565b9150611ba283611b3a565b925082821015611bb557611bb4611b0b565b5b828203905092915050565b7f4e487b7100000000000000000000000000000000000000000000000000000000600052603160045260246000fdfea2646970667358221220c2b34698716982314c4a428e3baff8d521245564c12f030d8845d700b145aefb64736f6c634300080d0033",
  "immutableReferences": {},
  "source": "// SPDX-License-Identifier: MIT\npragma solidity >=0.7.0 <0.9.0;\ncontract DLT{\n    struct LedgerDIDDoc {\n      string Id;\n      string[] PublicKeys;\n      string[] Authentication;\n      string Hash;\n    }\n    LedgerDIDDoc[] Storage; \n    LedgerDIDDoc ledgerDIDDoc;\n    function createDID(LedgerDIDDoc memory _ledgerDIDDoc) public returns(string memory){\n      uint counter = 0;\n      for (uint i=0;i<Storage.length;i++){\n        if (keccak256(abi.encodePacked(Storage[i].Id)) == keccak256(abi.encodePacked(_ledgerDIDDoc.Id))){\n          counter++;\n        }\n      }\n      bool registered = false;\n      if(counter>0){\n        registered = true;\n      }else{\n        registered = false;\n      }\n      if(registered == false){\n        Storage.push(_ledgerDIDDoc);\n        return \"DID created!\";\n      }else{\n        return \"DID already created!\";\n      }\n    }\n\n    function updateDID(LedgerDIDDoc memory _ledgerDIDDoc)public returns(string memory){\n      uint counter = 0;\n        for (uint i=0;i<Storage.length;i++){\n          if (keccak256(abi.encodePacked(Storage[i].Id)) == keccak256(abi.encodePacked(_ledgerDIDDoc.Id))){\n            Storage[i].Id =_ledgerDIDDoc.Id;\n            Storage[i].PublicKeys =_ledgerDIDDoc.PublicKeys;\n            Storage[i].Authentication =_ledgerDIDDoc.Authentication;\n            Storage[i].Hash =_ledgerDIDDoc.Hash;\n            counter++;\n          }\n        }\n      bool registered = false;\n      if(counter>0){\n        registered = true;\n      }else{\n        registered = false;\n      }\n      if(registered != false){\n        return \"DID updated!\";\n      }else{\n        return \"DID not found!\";\n      }\n    } \n\n\n    function deleteDID(string[] memory dids)public returns(string memory){\n        uint counter = 0;\n        for (uint i = 0; i < dids.length; i++ ){\n          for (uint j = 0; j < Storage.length; j++ ){\n            if (keccak256(abi.encodePacked(Storage[j].Id)) == keccak256(abi.encodePacked(dids[i]))){\n               Storage[j] = Storage[Storage.length - 1];\n               Storage.pop();\n               counter++;\n            }\n          }\n        }\n      bool registered = false;\n      if(counter>0){\n        registered = true;\n      }else{\n        registered = false;\n      }\n      if(registered != false){\n        return \"DID Deleted!\";\n      }else{\n        return \"DID not found!\";\n      }\n    }\n\n    function foundDID(string memory did)public view returns(LedgerDIDDoc memory _ledgerDIDDoc){\n      for (uint i = 0; i < Storage.length; i++ ){\n        if (keccak256(abi.encodePacked(Storage[i].Id)) == keccak256(abi.encodePacked(did))){\n          return Storage[i];\n        }\n      }\n    }\n    \n    function getStorage () public view returns(LedgerDIDDoc[] memory){\n      return Storage;\n    }\n}",
  "sourcePath": "/Users/shohimardonrahimov/Documents/etherium/contracts/DLT.sol",
  "compiler": {
    "name": "solc",
    "version": "0.8.13+commit.abaa5c0e.Emscripten.clang"
  },
  "schemaVersion": "3.4.11",
  "updatedAt": "2023-01-13T08:36:57.677Z",
  "networkType": "ethereum",
  "devdoc": {
    "kind": "dev",
    "methods": {},
    "version": 1
  },
  "userdoc": {
    "kind": "user",
    "methods": {},
    "version": 1
  }
}